:0400000080312D28F6
:100008007E1480310B1F2B282100111C1228200080
:10001800111C122890314A2080312B282100911E72
:100028001F282000911E1F2822004F088A004E0812
:100038000A0080312B282100111E2B282000111EB8
:100048002B28220051088A0050080A0080317E10AF
:1000580009008231B02A20000030BD01BE01BD0474
:10006800A030BE04F62820005608031D0800210011
:1000780056082000B700210055082000B60040307F
:10008800B8000230B9003C2180314030C100023054
:10009800C2002030C3000230C400952080314030B7
:1000A800BF000230C0002030C1000230C200570833
:1000B800C300C42C2000C4005608031D00340230BD
:1000C8004402031800344408D7004408031D762866
:1000D8001030C200E430C301C0000330C1008F31CA
:1000E800B8278031440B83281030C2000230C30087
:1000F8000430C0000130C1008F31B8278031420878
:10010800BD0080304304BE00F620220055082000C0
:10011800B7002200540820008F31DD2780313C21B0
:10012800013455080319A4284108860042088700AD
:1001380001081F218031B9218031F6208031D50195
:100148002100AA01AB01AC21803144310108210012
:100158002B020318F028AC21803144310108FF3EFE
:100168002100A000FF3003180030A1002B08200652
:100178002104031DC228AC218031D3282B08A000FC
:10018800A101200041072100A20021082000423DD2
:100198002100A300220886002308870041310108B6
:1001A8001F218031B9218031F62080313E0821009D
:1001B800A90020003D082100A800291EE8282808D9
:1001C800A000F0302904EC282808A0000F302905E9
:1001D8008A218031AB0AA7280430AA0A2A02031808
:1001E8000800A6282400951322008E1120003E083E
:1001F800240091002400141803296400FE28110823
:100208002000BF00C0012400951320003D082400F1
:10021800910024001418122964000D2922008E155B
:1002280020003F08BE00BD01240011082000BD07C2
:100238000318BE0A08002000BA0057081030BB0097
:10024800031D2829803029298230BC003A08033947
:10025800B8000A30B901B835B90D890B2F2938080B
:10026800BB043908BC043C08B7003B08B6000800CA
:1002780037080339013EBA003808043EBB00003095
:10028800393DBC003B0886003C0887003A088100DD
:10029800B221803103190800BF01B22180313F0229
:1002A800031808005708031D72293F08BA00BB014C
:1002B8003807BC003B08393DBD003C0886003D08B6
:1002C8008700360881003F08BA00BB01380786005E
:1002D8003B08393D870003308105842936080339F6
:1002E8000907BA003F08BB00BC013807BD003C083D
:1002F800393DBE003D0886003E0887003A08810067
:10030800B736B60CB736B60CBF0A5129A1002A0871
:10031800A200A3012B08A400A501A435A50DA435AE
:10032800A50D22082407A6002308253DA700A63509
:10033800A70D260820004307860021002708200073
:10034800443D870021002008C03F2108C13F080024
:100358002000410886004208870008003808860007
:10036800390887004431010808003708BE003608FC
:10037800BD0008002100B2008F31CA278031320841
:100388002000C400C501C41BC503AD30EF21803176
:10039800B301AD302000B6000030B700FB23803138
:1003A80021003308AB00AC012000370821002C02E3
:1003B800031DE2292000360821002B02031808003B
:1003C8003308AD3E8600870101088E31DA26803178
:1003D8002100B30ACD292100A9004430A4003D27FB
:1003E80080312A080319662A25302A060319FF29AD
:1003F80084278031F329A5013D278031003A03196C
:10040800662A643A03190C2A0D3A03190C2AF329AF
:10041800240886008701403FA700413FA800A40A9E
:10042800A40AA81F1E2A0330A504A709A809A70A19
:100438000319A80AAA01AA0A2A085F278031A2007C
:10044800013FA30023082802031D2C2A22082702A3
:10045800031C332A0530AA0A2A06031D202A250868
:10046800033903193D2A290886002D3087018100A8
:10047800A90A2A08A600622A0A302000BD00BE0187
:10048800210026085F2780312000B600013FB70011
:10049800210028082000B900210027082000B80002
:1004A8006B2280313708C0003608BF0090228031A7
:1004B8003D08303E2100AA0084278031A603260F7C
:1004C800402AF32929088600870181010800BB0119
:1004D800BC013608370403198B2ABA01BA0AB71BBC
:1004E800782AB635B70D722ABB35BC0D37083902E4
:1004F800031D802A36083802031C872A3608B802EA
:100508003708B93B3B14B736B60CBA0B782A3C0807
:10051800B7003B08B60008003D083E040319AB2AA3
:10052800C101C10ABE1B9B2ABD35BE0D952A3E08D6
:100538004002031DA12A3D083F02031CA72A3D08CB
:10054800BF023E08C03BBE36BD0CC10B9B2A40080B
:10055800BE003F08BD0008007030840021308500CF
:100568008030FE000230FF008731F22780314730AB
:10057800FB018400003085001330FE00FF01873145
:10058800F227803121002030E301E401E501E60192
:100598008400013085004330FE000030FF008731C1
:1005A800F2278031A0308400013085004430FE00FD
:1005B8000030FF008731F22780317E102000E42AC6
:1005C800182380318B170B1716302000B6001C300B
:1005D800B70010238831A420803121000E128E121A
:1005E80020005608013A031DFB2A112480314C23B0
:1005F8008031012380316400F42A2100111A080097
:10060800023020004802003003194702031C0C196D
:10061800080021001116080037082200D300200026
:1006280036082200D20008002D2380312323803190
:100638004923803143238031A4248031412C7030F8
:100648002100990098012200960121001A1B080038
:10065800292B22008C018E012F3021008C000630BE
:100668008E00043023008E008C0124008C018E0142
:1006780021009517C43022009D009E010800240027
:10068800940120309500920108000E309700080070
:10069800F6238031003A03190800D4238031210061
:1006A800E200023A031D5A2B2000CD01223020001F
:1006B8004D06031D6C2B0D3021006206031D08003A
:1006C80020008D30CD01BB009830BC00BD01A22BAD
:1006D8004D08A03E86000130870021006208810095
:1006E80020000D30CD0A21006206031D0800922B60
:1006F8008931432180319F2B8D302000BB009830F9
:10070800BC00BD01A22380319F2B8B302000BB0091
:100718009830BC00BD01A22380319F2B9031D92095
:100728008031003A03197C2B013A0319802B033AD4
:100738000319892B9F2B2000CD0108003C08B70026
:100748003B08B600FB2380313608C0004008031977
:10075800080002308E31DA26803120003D08031966
:10076800B92B41308E31DA2680312000C101400892
:1007780041020318D12B3C08BF003B08BE004108CA
:100788003E0784003F0803183F0A850000088E31A1
:10079800DA2680312000C10ABB2B0D308E31DA2ECB
:1007A80020005108031DDA2B6400D42B5308343E73
:1007B80086000130870001082100E5002000530869
:1007C8002C3E86000108B600D30A083053020318ED
:1007D800D301210091122000D1032100911620009D
:1007E8003608080020005108031D0134003437087A
:1007F800BA003608B900390884003A0885001200A2
:1008080003190A2CB90A0319BA0AFF2B3608390248
:10081800B60037083A3BB70008007B080319080000
:100828005E302100BF000130C000200054082100C4
:10083800D500D6015608D8007B085502D700031CFE
:10084800D8030339D90000305805DA000530D93506
:10085800DA0D890B2B2C7030DB002330DC005908B3
:100868005B07DD005A085C3DDE005D08C1005E08DC
:10087800C200C301C424FB03080021009112983070
:100888002000B6001030B7009424803121001112E6
:100898006B302000B6001030B7009C24803108303F
:1008A80023009F0090309D0024309E0022309B0042
:1008B8009C01FF302000B6000730B7008424803147
:1008C80004302000B6000830B7008C2480319730FF
:1008D8002000B6001030B700BC242100E50120003C
:1008E800C901CA012100E301E4012000C701023067
:1008F800C800D201D301D10121000C1591160800BE
:1009080037082200CB00200036082200CA00080061
:1009180037082200CD00200036082200CC0008004D
:1009280037082200CF00200036082200CE00080039
:1009380037082200D100200036082200D000080025
:100948002000990102309700183096001708CC0053
:10095800CB011608CB04111021001114FE30200021
:10096800B6000730B7001023313020009800080087
:1009780037082200C900200036082200C8000800F5
:1009880040082000C30021003F082000C2002100C9
:1009980042082000C500210041082000C400CD30D5
:1009A800C6006225803120005608031DDF2C023066
:1009B8008E31DA268031210043080319E72C4130B3
:1009C8008E31DA2680312100CC018B2780314C0210
:1009D80066030318552D0319F52C02306606031D0E
:1009E8002D2D2000570B102D6B2780314C08C60089
:1009F800C7013F0786004708403D87000108C80037
:100A08000E30C901C835C90D890B062D44084804A4
:100A1800B90045084904342D6B2780314408C600C5
:100A28002F304505C7004C08C800C9013F0786009C
:100A38004908403D87000108CA000E30CB01CA357D
:100A4800CB0D890B232D46084A04B90047084B04EF
:100A5800342D4C35CD3E86008701403FB900413FDB
:100A6800BA008C310624803121008B278031FF3E6B
:100A7800C400FF3003180030C5004508803A803CA8
:100A8800031D482D44084C020318522D210066030B
:100A98000319522D2C308E31DA2680312100CC0AF0
:100AA800E92C03195B2D3B308E31DA26803120008A
:100AB8005608031D08000D308E31DA2E2100B601CC
:100AC80020004208860043088700443101082100BD
:100AD8003602031808005127803100308701C03FD3
:100AE800C13FB5013508AE00AF013608B000B1010D
:100AF800B035B10DB035B10D2E083007B2002F0852
:100B0800313DB300B235B30D3208200044078600EA
:100B1800210033082000453D87007E278031B4003E
:100B280084008501403F80070131413F803D04300A
:100B38003F31B50A3502031C762D04302000B6007B
:100B4800B7012100512780318701403F2000B800BC
:100B5800413FB900992680317E278031AF00860059
:100B6800870120003608C03F3708C13F570BE42DE6
:100B78005827803151278031D92680310136563E99
:100B88007527803174268031F62680310826803119
:100B980012278031B01BD52D0627803101365A3EE9
:100BA800D92D062780310136583E86002827803106
:100BB8007F3151278031870181354131810D052EE3
:100BC80058278031512780318701D9268031010883
:100BD8003C3E7527803174268031F6268031082600
:100BE800803112278031B01BFE2D06278031010885
:100BF800443E022E062780310108403E8600282701
:100C080080317F31B60A642DA901A31F182EA009CF
:100C1800A109A209A309A00A0319A10A0319A20A92
:100C28000319A30AA901A90AA71F272EA409A50920
:100C3800A609A709A40A0319A50A0319A60A0319EC
:100C4800A70A0130A906AA01AB01AC01AD0123082E
:100C580022042104200403195D2EA801A80AA31B5D
:100C68003A2EA035A10DA20DA30D322EAA35AB0D3B
:100C7800AC0DAD0D23082702031D4C2E22082602B9
:100C8800031D4C2E21082502031D4C2E200824028A
:100C9800031C572E2008A4022108A53B2208A63BC6
:100CA8002308A73B2A14A336A20CA10CA00CA80B5E
:100CB8003A2E290803196B2EAA09AB09AC09AD090C
:100CC800AA0A0319AB0A0319AC0A0319AD0A2D08BD
:100CD800A3002C08A2002B08A1002A08A0000800E5
:100CE800BE01BF01C001C101361C822E3A08BE07F1
:100CF8003B08BF3D3C08C03D3D08C13DBA35BB0D72
:100D0800BC0DBD0DB936B80CB70CB60C3908380493
:100D180037043604031D782E4108B9004008B8008E
:100D28003F08B7003E08B6000800BB01B71FA32E56
:100D3800B609B709B60A0319B70ABB01BB0AB91F36
:100D4800AC2EB809B909B80A0319B90A0130BB06AB
:100D5800BC01BD01360837040319CC2EBA01BA0A02
:100D6800B71BB92EB635B70DB32EBC35BD0D370838
:100D78003902031DC12E36083802031CC82E360856
:100D8800B8023708B93B3C14B736B60CBA0BB92EC3
:100D98003B080319D42EBC09BD09BC0A0319BD0AB6
:100DA8003D08B7003C08B6000800403FAF00413F8F
:100DB800B0002F082000B600210030082000B7003E
:100DC800890D893B8909B800B90021003608B100AE
:100DD800B201200042078600210032082000433D6E
:100DE8008700080039082100A700200038082100E2
:100DF800A600200037082100A500200036082100A1
:100E0800A40008003608AE00AF01200042078600A3
:100E180021002F082000433D8700080036352000B8
:100E280046072100B300860087012008C03F21083B
:100E3800C13F3635200046072100AE008600403FFE
:100E4800AF00413FB00008000130870001082100D1
:100E5800B000B101B01BB1033635200046072100B0
:100E6800B200860087013008810741313108813D91
:100E78000800200043082100A100200042082100AA
:100E8800A0002000C20A0319C30A21002008840018
:100E9800210885000008AA0008003635200046070A
:100EA8002100AE008600080080302100A000A101CA
:100EB800A201A3010800A0002D30A101A035A10DB9
:100EC800200784009830213D8500003F080021005C
:100ED8004C35CD3E86008701403FC400413FC500E8
:100EE80008008600013087000108BA00BB01BC0178
:100EF800BD01080021003635200046072100080002
:100F08002908860087012A088100A90A08003F08E5
:100F1800860040088700443101080800BF01BD1F52
:100F28009F2FEC2787310319BB0A0319BC0A031941
:100F3800BD0ABF01BF0AB91FAC2FB609B709B80966
:100F4800B909B60A0319B70A0319B80A0319B90A7D
:100F580039083804370436040319D92FBE01BE0AEC
:100F6800B91BBB2FB635B70DB80DB90DB32F39085E
:100F78003D02031DC92F38083C02031DC92F37083D
:100F88003B02031DC92F36083A02031CD32F36082B
:100F9800BA023708BB3B3808BC3B3908BD3BB936F9
:100FA800B80CB70CB60CBE0BBB2F3F080319E32FC8
:100FB800EC270319BB0A0319BC0A0319BD0A3D082B
:100FC800B9003C08B8003B08B7003A08B60008006A
:100FD800BA09BB09BC09BD09BA0A08006400013096
:100FE80080010131FE020030FF3B7F087E040319B7
:080FF8000034F32F080008008B
:1010080023001D121D16080020000030BC01BC0A78
:101018009E31C52688310030D60180315E20883166
:10102800003048232000C101C20180312F208831BF
:101038002100A001A00AA10197278831E4302000EF
:10104800C0000330C100B82788311B30132788310E
:10105800003A031935281B3013278831FF3A031D3E
:1010680056282100A20180302000BC00210022085F
:101078001B3E9E31C526883121000430A20A220277
:10108800031C3728A30180302000BC00210023085E
:10109800273E9E31C526883121000230A30A23024B
:1010A800031C47282100A40124081B3E132788316C
:1010B800BC00210024081D278831210024081F3E78
:1010C80013278831BC0021002408492788312100D2
:1010D8002408233E13278831BC0021002408332725
:1010E800883121000430A40A2402031C5828A501D1
:1010F8002508273E13278831BC0021002508043E17
:101108001D27883121002508293E13278831BC0076
:1011180021002508043E49278831210025082B3E57
:1011280013278831BC0021002508043E3327883165
:1011380021000230A50A2502031C7C289D31D02DF0
:1011480023008E1121008E1122008E152100A80186
:101158009D317525883120000330D6011327803151
:101168005E208831003A031DBC282100A801A80A86
:1011780004301327883148238831003A031DC728D3
:101188002100A801A80A80312F20883105309F311D
:10119800092788313B082100A10020003A082100D6
:1011A800A00097278831003A031DDD282100A801F7
:1011B800A80A07309F31092788313B08C1003A083F
:1011C800C000B8278831003A031DED282100A80186
:1011D800A80A2100A9012908093E13278831BC0063
:1011E800210029081D278831210029080D3E1327D1
:1011F8008831BC00210029084927883121002908A5
:10120800113E13278831BC00210029083327883173
:1012180021000430A90A2902031CEF28AA012A0880
:10122800153E13278831BC0021002A08043E1D27DB
:10123800883121002A08173E13278831BC00210075
:101248002A08043E4927883121002A08193E132715
:101258008831BC0021002A08043E33278831210048
:101268000230AA0A2A02031C1329280803193D2957
:1012780008202000D501D50AD401FB010800200070
:101288004E08FF3E031C332B84001530040203185C
:10129800332B90310435003E8200080020005608A8
:1012A800003A031D08003730BB009830BC00BD0170
:1012B800BD0A8331A22B0030F4278F302000BB00F9
:1012C8009830BC00BD018331A22B0130F42F2000DF
:1012D8005608003A031D080055238831003A0319BF
:1012E8007C29013A0319382B033A0319402B382B70
:1012F8002000D501D50A21006608D800003048230F
:101308008831BC2337082100D60020003608210088
:10131800D500D701D70A80313720883121005808F5
:10132800482B20005608003A031D08005523883131
:10133800003A0319A629013A0319382B033A03196D
:10134800402B382B2000D501D50A21006608D9008A
:10135800023048238831BC2337082100D6002000FA
:1013680036082100D500D701D70A803137208831C7
:1013780021005908482B20005608003A031D080090
:1013880008208F30BB009830BC00BD018331A22BF0
:1013980020005608003A031D080001309C2D20004B
:1013A8005608003A031D0800220021082100A10068
:1013B800220020082100A0009727883161292000F9
:1013C8005608003A031D08002200200880315E20DC
:1013D8008831612920005608003A031D0800FD29BC
:1013E800BC2388313708C1003608C000B8278831C7
:1013F800612955238831003A0319F429013A031960
:10140800382B033A0319402B382B20005608003A92
:10141800031D080022002008482388316129200084
:101428005608003A031D080000309C2D200056087D
:10143800003A031D08009D31D0258831612920001C
:101448005608003A031D08000330132780315E2038
:101458008831043013278831482305309F31092704
:1014680088313B082100A10020003A082100A00093
:10147800972707309F31092788313B08C1003A0870
:10148800C000B82788312100E0016008093E132711
:101498008831BC00210060081D27883121006008C0
:1014A8000D3E13278831BC00210060084927883188
:1014B80021006008113E13278831BC002100600814
:1014C8003327883121000430E00A6002031C492ACE
:1014D800E10102306102031861296108153E1327F2
:1014E8008831BC0021006108043E1D278831210095
:1014F8006108173E13278831BC0021006108043EAB
:101508004927883121006108193E13278831BC001A
:1015180021006108043E332788312100E10A6D2A41
:1015280020005608003A031D08002100DA010630A1
:101538005A02031861295A35203E86000130870077
:1015480001082000BC0021005A081D27883121000D
:10155800DA0A9B2A20005608003A031D08002100D9
:10156800DB0106305B02031861295B35203E8600EB
:101578000130870001082000BC0021005B084927D2
:1015880088312100DB0AB52A20005608003A031DDD
:1015980008002100DC0106305C02031861295C3573
:1015A800203E86000130870001082000BC00210091
:1015B8005C08332788312100DC0ACF2A200056082E
:1015C800003A031D08002100DD0106305D02031802
:1015D80061295D35203E8600013087000108200022
:1015E800C00021005D089D31582588312100DD0AA1
:1015F800E92A20005608003A031D08002100DE01F0
:1016080006305E02031861295E35203E86000130EF
:10161800870001082000C00021005E089D311E25BA
:1016280088312100DE0A042B20005608003A031DE9
:1016380008002100DF0106305F02031861295F35C9
:10164800203E86000130870001082000C0002100EC
:101658005F089D313B2588312100DF0A1F2B2000C0
:101668005608003A031D08008D302000BB00983052
:10167800BC00BD018331A22B8B302000BB00983009
:10168800BC00BD018331A22B2000B6005608031D03
:101698000034033036020318003436082100E6000F
:1016A800013450080319013420005708003A031D7B
:1016B800932B500B602B0034BB015008FF3EB60043
:1016C800FF3003180030B700803A803C031D6E2BB2
:1016D80036083B020318003420003B08013EBA00DC
:1016E80050083A020318912B3A35203E8600013003
:1016F8008700403FB600413FB7003B35203E86009B
:10170800403FB800413FB9003706031D8D2B36080E
:10171800380603190134BA0A742BBB0A612B03304B
:1017280050020318023422002108D1278831031DF2
:10173800A02B0330220020020318023402302000BC
:101748005006031D003422002308D1278831031DC9
:10175800B02B033022002202031802342200210891
:101768002306031DB92B200822060319013400346F
:101778002000BD01BE015008031DD12B20005708D1
:10178800003A031DCC2BE430B6000330B700080044
:101798000430B6000130B7000800BF0150083F020E
:1017A8000318F22B3F35203E860001308700403F6A
:1017B800B800413FB9003808FF3EBA00FF30393D54
:1017C800BB003F35890AEA2BBA35BB0D890BE82BDC
:1017D8003A08BD043B08BE04BF0AD22B5008B80023
:1017E800B901B900B8013808003EBB00FF30393DE7
:1017F800BC003B08BD043C08BE043E08B7003D08D9
:10180800B6000800902D0130BE01BD008830BC0034
:10181800DE30BB001030A301A201A100A0013908ED
:101828002000B60021003A082000B700890D893B46
:101838008909B800B90021003E082000BD00210038
:101848003D082000BC0021003C082000BB0021000E
:101858003B082000BA008631742688318631F62686
:1018680088318631082688312308BE002208BD0049
:101878002108BC002008BB003E082000C50021004C
:101888003D082000C40021003C082000C3002100BE
:101898003B082000C2002100B7012000C51F662CAC
:1018A800562C662C2D302100AE002000C209C30939
:1018B800C409C509C20A0319C30A0319C40A0319CA
:1018C800C50A682C2100AE0108302100B800053097
:1018D8003806031D782C712C782C3808AE3E86000B
:1018E8002E3087018100C82C3808AE3E86000A30A9
:1018F80087012000B600B701B801B9014508BD004D
:101908004408BC004308BB004208BA00873192274C
:1019180088313608303E81000A302100A000A1013C
:10192800A201A301200045082100A70020004408C7
:101938002100A600200043082100A500200042083D
:101948002100A40086310826883123082000C5001C
:10195800210022082000C400210021082000C30023
:10196800210020082000C200450844044304420422
:10197800031DC82CC02CC82C0530210038020318C0
:10198800C82CCF2CC82CCF2C2100B8033808031D35
:101998006B2CCF2C6B2C2E080319FD2CD42CFD2C72
:1019A8003808FF3EAE3E86002D308701810038089A
:1019B800FF3EAE3E2000BC00BD013D083C07BB0019
:1019C800860087010108031DEC2C1E2DEC2C1E2D12
:1019D8003D083C07BB00860087010108DA268831EC
:1019E8002000BD0A18303D02031CE12C1E2DE12CFD
:1019F8001E2D3808AE3E2000BC00BD013D083C0746
:101A0800BB00860087010108031D0D2D1E2D0D2D1D
:101A18001E2D3D083C07BB00860087010108DA2619
:101A280088312000BD0A18303D02031C022D1E2DEE
:101A3800022D1E2D08003A08DA26883121003908BF
:101A4800DA2E3A082000BF00210039082000BE0025
:101A58003F08BD003D0E0F39BC000F303C05BB00F0
:101A68000A303B02031C402D3A2D402D3C080F390B
:101A7800373EDA268831452D3C080F39303EDA26C4
:101A8800883120003D08BC000F303C05BB000A30FF
:101A98003B02031C572D512D572D3C080F39373E5B
:101AA800DA2688315D2D3C080F39303EDA26883138
:101AB8005D2D20003E08BD003D0E0F39BC000F30E3
:101AC8003C05BB000A303B02031C722D6C2D722DA5
:101AD8003C080F39373EDA268831772D3C080F3914
:101AE800303EDA26883120003D08BC000F303C0526
:101AF800BB000A303B02031C892D832D892D3C082D
:101B08000F39373EDA2688318F2D3C080F39303EA1
:101B1800DA2688318F2D08006608003A0319072C49
:101B2800013A03191F2D033A0319252D9B2D08008F
:101B38002100BA000230DA2688314130DA268831AD
:101B48005330DA2688315230DA26883121003A08B3
:101B58000319B82D05309F31092788313B0821002A
:101B6800AC0020003A08C52D22005D082000B7000F
:101B780022005C082000B60037082100AC002000D5
:101B880036082100AB005F2788313B30DA268831E0
:101B98005330DA2688314D30DA26883121003A0868
:101BA8000319DA2D033013278831DC2D200057085C
:101BB8002100AB00AC015F2788313B30DA26883141
:101BC8005330DA2688314330DA26883121003A0842
:101BD8000319F82D07309F31092788313B08210068
:101BE800B90020003A08052E220055082000B70049
:101BF800220054082000B60037082100B900200050
:101C080036082100B80039080339013EBB00B70186
:101C18003B0837020318302E38080339313EDA26DC
:101C280088312100B936B80CB936B80C3B08FF3EEC
:101C3800B500FF3003180030B6003608803A803C03
:101C4800031D282E3508370203182D2E2C30DA26CE
:101C580088312100B70A0C2E3B30DA268831533000
:101C6800DA2688314430DA26883121003A08031907
:101C7800422E0430132788312100442E21006608A3
:101C8800AB00AC015F2788313B30DA26883153300E
:101C9800DA2688314130DA2688312100BB013A083A
:101CA8000319632E04303B023B0803185F2E093EDC
:101CB80013278831672E113E13278831672E3B087A
:101CC8009E31CD2688312100AB00AC015F278831D9
:101CD800053021003B060319742E2C30DA26883192
:101CE800EF278831031C532E3B30DA2688315330D6
:101CF800DA2688314230DA2688315030DA268831BF
:101D08002100BB013A080319962E04303B023B0818
:101D18000318922E0D3E132788319A2E133E13274F
:101D280088319A2E3B089E31F52688318131BE21B3
:101D3800883105303B060319A42E2C30DA26883169
:101D4800EF278831031C862E3B30DA268831533042
:101D5800DA2688314230DA2688314E30DA26883160
:101D68002100BB013A080319C62E04303B023B0888
:101D78000318C22E113E13278831CA2E153E132789
:101D88008831CA2E3B089E31E12688318131BE2137
:101D9800883105303B060319D42E2C30DA268831D9
:101DA800EF278831031CB62E0D30DA2E2000BA003A
:101DB80047084804031908002100111AEA2E2000D8
:101DC8000C19EA2E3A0823009A000D2F210011124F
:101DD80070302000B6002130B70049083607B80037
:101DE8004A08373DB90038088600390887003A089C
:101DF8008100C90A0319CA0A02304A0200300319CD
:101E08004902031C092FC901CA010130C702003069
:101E1800C83B20000C1908002100111608002000FA
:101E2800BA00B6003B30B701B70A9F3155273B08C7
:101E380008002000BD0004303D020318272F3D088C
:101E48003C3EE927883104303D02031C0800063077
:101E58003D02031808003D08523EE927080020000B
:101E6800BD0004303D0203183D2F3D08403ED727F2
:101E7800883104303D02031C080006303D02031877
:101E880008003D08543ED72708002000BD00043054
:101E98003D020318532F3D08443EE32788310430A0
:101EA8003D02031C080006303D02031808003D08E7
:101EB800563EE327080003302C02E93003192B02B1
:101EC8000318952FCA272C082000C50021002B08CD
:101ED8002000C400AF308131EF218831B401AF3028
:101EE8002000B6000030B7008331FB238831210081
:101EF8003408AD00AE012000370821002E02031D72
:101F0800892F2000360821002D0203180800340804
:101F1800AF3E860087010108DA2688312100B40A1D
:101F2800732F3030DA2E20005608031D00342100AC
:101F3800200821040319003403302102E930031971
:101F480020020318003421082200DD0021002008A7
:101F58002200DC005D082000C40022005C0820008C
:101F6800C30097310B2701345608031D003441087C
:101F78002200D500200040082200D400200041089B
:101F8800B7004008DD2781313C210134973020001B
:101F9800C2009830C30021000800803A2000B60033
:101FA8008030360208008600013087003C08810036
:101FB8000800B6005E30B8000130B900080086009D
:101FC800013087003C088100080086000130870046
:101FD8003C088100080021000630BB0A3B020800CB
:101FE8002000B60036080319FB2F360BFD2F3608E4
:101FF800D600D501D50A08008931522989315F29CF
:102008008931692989316B29893195298931BF2914
:102018008931CC298B31332B8931D3298931E32973
:102028008931EE298A31092A8A31132A8A311A2AF2
:102038008A31232A8A31942A8A31AE2A8A31C82AD7
:102048008A31E22A8A31FD2A8B31182B9031EA280D
:102058009231632A9531BB2D9231A12A94317D2C7E
:1020940011104C08F1004B08F0005D2090315228DB
:1020A4002200520853040319080053088A005208F6
:1020B4000A0090310800181D66281810710897004E
:1020C40070089600181408007108970070089600AC
:1020D4000800023020004802003003194702031CA4
:1020E4000C1994287030F0002130F10021006308AD
:1020F400700786006408713D8700010823009A0078
:102104002100E30A0319E40A0230640200300319CF
:102114006302031C8F28E301E4012000C70A0319AA
:10212400C80A0800210011120800C128D2209031E9
:10213400810123001D1DA92820005208343E860079
:10214400811422004B088A004A080A0090312300B7
:102154009D1CB428D220011522004D088A004C0889
:102164000A009031D220903101080319C0282200BE
:1021740049088A0048080A0090310800C128200054
:1021840052082C3E86000130870023001908810084
:102194002000D20A083052020318D201D10A0800E2
:1021A40020005208343E8600013087000800A40154
:1021B4002000CF01D001CE0121002408031DEC280A
:1021C4002408A03E86000130870002300106031D6A
:1021D4000134A40AA5302000B700210024082000FF
:1021E400B900B80122303902031CFC28FA28FC2863
:1021F4000030602A3908A03E8600013087000108BB
:10220400B6003608031D0A2908290A2901301229B3
:102214000D303606031D112908291129082900301B
:10222400003A03191929172919290230602A390893
:10223400A03E8600013087000108B6002C30360627
:10224400031D282926292829013029290030003A8C
:10225400031935292E29352937088600870181017C
:10226400810A0130602A3908A03E860001308700C7
:102274000108B60030303602031C4A2942294A2993
:102284003A30360203184A2948294A2901304B2991
:102294000030003A031D6C2950296C293908A03EEE
:1022A4008600013087000108B6002D303606031D74
:1022B4005F295D295F29013067292B303606031D0C
:1022C40066295D2966295D290030003A0319DB2956
:1022D4006C29DB293908A03E8600013087000108FB
:1022E4002300C2002000B80A3930B6003608860040
:1022F4008701810A3608860087014D080102031C04
:10230400872985298729003088290130003A031D4F
:10231400B329FA28B329FA283808C23E86000130C6
:1023240087003908A03E8400013085000008810040
:10233400B80A3930B600360886008701810A3608A3
:10234400860087014D080102031CAC29AA29AC2987
:102354000030AD290130003A031DB329FA28B3290E
:10236400FA283908A03E8600013087000108B6002B
:1023740030303602031CC829C029C8293A30360235
:102384000318C829C629C8290130C9290030003AD0
:10239400031D8E29CE298E29370886008701380827
:1023A40081003808C23E8600013087008101033075
:1023B400602A3908A03E8600013087000108B60073
:1023C40041303602031CF029E829F0295B3036023B
:1023D4000318F029EE29F0290130FE296130360274
:1023E400031CFD29F629FD297B3036020318FD293B
:1023F400EE29FD29EE290030003A0319FA282C2A87
:10240400FA282C2A3808C23E860001308700390891
:10241400A03E8400013085000008B60036085F390C
:102424008100B80A3930B600360886008701810A6F
:102434003608860087014D080102031C252A232A39
:10244400252A0030262A0130003A031D2C2AFA28B6
:102454002C2AFA283908A03E86000130870001089A
:10246400B60041303602031C412A392A412A5B3026
:1024740036020318412A3F2A412A01304F2A61308B
:102484003602031C4E2A472A4E2A7B303602031892
:102494004E2A3F2A4E2A3F2A0030003A031D042ABE
:1024A400542A042A3708860087013808810038082E
:1024B400C23E860001308700810104302100A30060
:1024C4007F2E023020004F060319782A04304F066D
:1024D4000319782A06304F060319782A08304F0664
:1024E4000319782A0A304F06031D01340B304E06B7
:1024F40003199C2A10304E0603199C2A11304E06EB
:1025040003199C2A12304E0603199C2A13304E06D6
:1025140003199C2A14304E0603199C2A15304E06C2
:1025240003199C2A04304E0603199C2A05304E06D2
:10253400031D0134CF0A21002508A407892E200099
:102544004F030319B92A03304F060319B92A05307A
:102554004F060319B92A07304F060319B92A09305F
:102564004F060B300319BA2A4F06031D01340B30F2
:102574004E0609300319EA2A4E060319E92A0A30DD
:102584004E060319E92A0C304E060319E92A0430D1
:102594004E060319E92A05304E060319E92A1030BC
:1025A4004E060319E92A11304E060319E92A12309E
:1025B4004E060319E92A13304E060319E92A14308A
:1025C4004E060319E92A15304E06031D013409305D
:1025D4004E06031DF12A02304F02031801340A305B
:1025E4004E06031DF92A02304F02031801340C3041
:1025F4004E06031D012B02304F0203180134103024
:102604004E06031D092B0D304F02031801341130FF
:102614004E06031D112B0D304F02031801341230E6
:102624004E06031D192B0D304F02031801341330CD
:102634004E06031D212B0D304F02031801341430B4
:102644004E06031D292B0D304F020318013415309B
:102654004E06031D312B0D304F0203180134C230D6
:10266400B02690315035203E8600013087003C086A
:10267400C03F3D08C13F09304E06031D442C503570
:10268400203E8600403F2100A000413FA1002108D8
:10269400803AA20080302202031D522B0130200216
:1026A400031C02342000CE27903183302202031D04
:1026B4005D2BE930200203180234442CCE279031DC
:1026C40080302202031D682B0230200203180234DA
:1026D400DC279031811B0234492CCE279031803085
:1026E4002202031D772B0330200203180234DC2757
:1026F4009031811B02344D2CCE2790318030220240
:10270400031D862B01302002031C02342000CE2737
:10271400903180302202031D912B053020020318D2
:102724000234512CCE27903180302202031D9C2B81
:1027340001302002031C02342000CE279031803067
:102744002202031DA72B0530200203180234562C45
:10275400CE27903180302202031DB22B013020029B
:10276400031C02342000CE27903180302202031D46
:10277400BD2B05302002031802345B2CCE27903188
:1027840080302202031DC82B01302002031C0234B6
:102794002000CE27903181302202031DD32B00303C
:1027A400200203180234602CCE2790317F3022029D
:1027B400031DDE2B80302002031C02342000CE27B0
:1027C400903180302202031DE92B8030200203184F
:1027D4000234652CCE2790317F302202031DF42B66
:1027E40080302002031C02342000CE279031803038
:1027F4002202031DFF2B80302002031802346A2CAE
:10280400CE27903180302202031D0A2C0130200291
:10281400031C02342000CE27903181302202031D94
:10282400152C00302002031802346F2CCE2790316F
:102834007F302202031D202C80302002031C02342E
:102844002000CE27903180302202031D2B2C8030B3
:10285400200203180234742CCE2790317F302202D8
:10286400031D362C80302002031C02342000CE27A6
:10287400903180302202031D412C80302002031845
:102884000234792C0A3020004E060319602B0C30D8
:102894004E0603196F2B04304E0603197E2B0530A8
:1028A40020004E060319942B0B3020004E0603190A
:1028B400AA2B103020004E060319C02B1130200023
:1028C4004E060319D62B123020004E060319EC2BAA
:1028D400133020004E060319022C143020004E063B
:1028E4000319182C153020004E0603192E2C200035
:1028F400CF0AD00A9D2A20004F08031D013404305A
:102904002100250203180134C2302000BB0091309D
:10291400B6009830B7003B088F269031360837044C
:10292400031D982C962C982C0130B62D9330B600AC
:102934009830B7003B088F26903136083704031DC2
:10294400A72CA52CA72C0230B62D9530B6009830B4
:10295400B7003B088F26903136083704031DB62C88
:10296400B42CB62C0330B62D6730B6009830B700BF
:102974003B088F26903136083704031DC52CC32C21
:10298400C52C0430B62D6A30B6009830B7003B0829
:102994008F26903136083704031DD42CD22CD42C26
:1029A4000530B62D7330B6009830B7003B088F263B
:1029B400903136083704031DE32CE12CE32C063058
:1029C400B62D7030B6009830B7003B088F26903192
:1029D40036083704031DF22CF02CF22C0730B62DE8
:1029E4008530B6009830B7003B088F269031360802
:1029F4003704031D012DFF2C012D0930B62D7C3029
:102A0400B6009830B7003B088F269031360837045B
:102A1400031D102D0E2D102D0A30B62D6430B60076
:102A24009830B7003B088F26903136083704031DD1
:102A34001F2D1D2D1F2D0B30B62D7930B60098306B
:102A4400B7003B088F26903136083704031D2E2D1E
:102A54002C2D2E2D0C30B62D6D30B6009830B700CD
:102A64003B088F26903136083704031D3D2D3B2D3E
:102A74003D2D0D30B62D8830B6009830B7003B0898
:102A84008F26903136083704031D4C2D4A2D4C2DCA
:102A94000E30B62D7630B6009830B7003B088F263E
:102AA400903136083704031D5B2D592D5B2D0F30F3
:102AB400B62D7F30B6009830B7003B088F26903192
:102AC40036083704031D6A2D682D6A2D1030B62D83
:102AD4005C30B6009830B7003B088F26903136083A
:102AE4003704031D792D772D792D1130B62D5430EF
:102AF400B6009830B7003B088F269031360837046B
:102B0400031D882D862D882D1230B62D8230B600F7
:102B14009830B7003B088F26903136083704031DE0
:102B2400972D952D972D1330B62D6030B600983023
:102B3400B7003B088F26903136083704031DA62DB5
:102B4400A42DA62D1430B62D5830B6009830B700F9
:102B54003B088F26903136083704031DB52DB32D5D
:102B6400B52D1530B62D0030CE004E0803190134B2
:102B74009C2A20004E0BC22D02304F020318013450
:102B840002304E06031DCA2D02304F0203180134D1
:102B940003304E06031DD22D02304F0203180134B8
:102BA40004304E06031DE62D02304F060319E62DB0
:102BB40004304F060319E62D06304F060319E62D9F
:102BC40008304F06031D013405304E06031DFA2D4F
:102BD40002304F060319FA2D04304F06063003194C
:102BE400FB2D4F060319FA2D08304F06031D01343F
:102BF40006304E06031D022E02304F020318013424
:102C040007304E06031D0A2E02304F02031801340A
:102C140009304E06031D122E02304F06031D0134E7
:102C24000A304E06031D1A2E02304F06031D0134CE
:102C34000B304E06031D2E2E02304F0603192E2E86
:102C440004304F0603192E2E06304F0603192E2E7C
:102C540008304F06031D01340C304E06031D362E7A
:102C640002304F06031D01340D304E06031D3E2E67
:102C740002304F02031801340E304E06031D462E57
:102C840002304F02031801340F304E06031D4E2E3E
:102C940002304F020318013410304E06031D562E25
:102CA4000C304F06031D013411304E06031D5E2EF9
:102CB4000C304F06031D013412304E06031D662EE0
:102CC4000C304F06031D013413304E06031D6E2EC7
:102CD4000C304F06031D013414304E06031D762EAE
:102CE4000C304F06031D013415304E06031D892E8A
:102CF4000C304F06031D0134892E2308840005304F
:102D040004020318892E903104352A3E82000230D1
:102D14002100230603190034DE28BA009C2E3A0849
:102D240086000130870001080319AA2EBA0AB60AE0
:102D34000319B70A3A088600013087003608840070
:102D44003708850000080102B90039080319912EDB
:102D54003908B600B701B61BB7030800C50045081B
:102D640086000130870020300106031DBB2EC50AF2
:102D7400B12E450886000130870009300106031989
:102D8400B92EC301C401C201450886002D300106D5
:102D9400031DCE2EC20AF52E450886000130870099
:102DA4002B3001060319F52EEC279031B927903109
:102DB400031CF72EEC279031BE00BF014408B70076
:102DC4004308B6000A30B800B9015E2790313E08C6
:102DD4003607C0003F08373DC1004008D03EC3005D
:102DE400FF30413DC400C50AD62E42080319062F00
:102DF4004309BE004409BF00BE0A0319BF0A3E08C6
:102E0400BC003F08BD0008004408BD004308BC00E6
:102E14000800430844040319080003304402E9305D
:102E24000319430203180800732790310030440249
:102E340010300319430203183E2FE42790315E2714
:102E440090313708850036088400FD3084079730B8
:102E5400853D0008D900E42790315E27903137087A
:102E6400850036088400FE3084079730853D003F96
:102E7400C500013FC600522FD9014308B6004408DB
:102E8400B7000F30B801B901BD01BC004230BB002E
:102E94004030BA007A2790313708C6003608C5009A
:102EA400D801B601B7014508B6024608B73B7527F5
:102EB4009031C7279031CC2FBA01BB01361C662F45
:102EC4003808BA073908BB3DB835B90DB736B60C62
:102ED40036083704031D602F3B08B7003A08B600D4
:102EE4000800181008003708CC003608CB0008008A
:102EF400BE01BF01C001C1013908380437043604DA
:102F04000319B02FC201C20AB91B8D2FB635B70DF4
:102F1400B80DB90D852FBE35BF0DC00DC10D3908D3
:102F24003D02031D9F2F38083C02031D9F2F3708C5
:102F34003B02031D9F2F36083A02031CAA2F3608B2
:102F4400BA023708BB3B3808BC3B3908BD3B3E14CA
:102F5400B936B80CB70CB60CC20B8D2F4108B900AA
:102F64004008B8003F08B7003E08B6000800B700A4
:102F74003A30B60137020318C52F30303702031C2C
:102F8400C52FB601B60A360C08004C08B7004B082A
:102F9400B600F22F181408005035203E8600013088
:102FA4008700403F2100A000413FA1002108803A52
:102FB400A200080020005035203E86000130870022
:102FC400413108004408B7004308B6000330B80094
:102FD400B90108004508860001308700010808008F
:102FE400181DFB2F18103708970036089600181480
:102FF4000800370897003608960008001034243477
:10300400F4340A345034C33407340334BA34053442
:103014005034C33404345034C33405343534823426
:1030240003340334BA34043412347A340334AD34FC
:1030340090340434A834613403345F347634023475
:10304400C334A234033429346434023483348B34D7
:10305400023436348234013400340A3400346434A3
:103064000034E8340334103427345434693462347B
:1030740062346F34203449346E3463342E34203453
:1030840054346934623462346934743423343434E7
:1030940033342D34323420344634573431342E34DE
:1030A40032340034533442344E34003446344234DF
:1030B4004E340034533442345034003446344234B1
:1030C40050340034533443340034523441340034E3
:1030D400523448340034473443340034473445349C
:1030E40000345334463400344634453400345334C5
:1030F4004434003453344D340034533441340034B4
:103104004634413400345334523400345334453457
:1031140000344F34003443340034413400345634E2
:1031240000344334003444340034253464340034EB
:10382C0020005808031D1D2C5908D8001F2CD80344
:10383C000800560B080004307B02031808005E30A9
:10384C00A0000130A1005408B0000530B101B03522
:10385C00B10D890B2D2C7030B2002330B300300821
:10386C003207B4003108333DB5003408A2003508E6
:10387C00A3004524FB0AD40A0330D40508005508DC
:10388C000319572C200886002108870001080225FF
:10389C009C317108F8007008F700E0249C3120007E
:1038AC00D501AE01AF012008860021088700443104
:1038BC0001082F020318DA2C200886002108870043
:1038CC0044310108FF3EA400FF3003180030A5006E
:1038DC002F0824062504031D782C200886002108B7
:1038EC008700852C2F08A400A5012007A600250819
:1038FC00213DA700260886002708870041310108D2
:10390C0002259C317108F8007008F700E0249C3106
:10391C0078082000AD007708AC002D1EB72C2C08C1
:10392C00A400F0302D04A5002E08A600A7012F0836
:10393C00A800A901A835A90DA835A90D26082807A6
:10394C00AA002708293DAB00AA35AB0D2A0822078F
:10395C0086002B08233D87002408C03F2508C13F63
:10396C00D82C2C08A4000F302D05A5002E08A6007D
:10397C00A7012F08A800A901A835A90DA835A90DE4
:10398C0026082807AA002708293DAB00AA35AB0D4D
:10399C002A08220786002B08233D87002408C03FF5
:1039AC002508C13FAF0A592C0430AE0A2E02031869
:1039BC000800582C2400951322008E11780824003E
:1039CC00910024001418EC2C6400E72C1108F90069
:1039DC00FA0195137708910024001418F72C640051
:1039EC00F22C22008E157908F800F701240011083A
:1039FC00F7070318F80A0800F40057081030F50010
:103A0C00031D0A2D80300B2D8230F600740803390B
:103A1C00F2000A30F301F235F30D890B112D720807
:103A2C00F5047308F6047608F1007508F000080038
:103A3C002000C1000430410203182B2D4108443EE4
:103A4C00F0279D311F3EC5269D3104304102031CD9
:103A5C003A2D0630410203183A2D4108563EF02704
:103A6C009D31253EC5269D31782F2000C1000430A4
:103A7C0041020318482D4108403EDE279D31233E6C
:103A8C00C5269D3104304102031C572D06304102DE
:103A9C000318572D4108543EDE279D31273EC5267D
:103AAC009D31782F2000C100043041020318652D90
:103ABC0041083C3EE7279D311B3EC5269D31043015
:103ACC004102031C742D063041020318742D410869
:103ADC00523EE7279D31233EC5269D31782F00307D
:103AEC00A601A7018F3113279D31013A031D872DA4
:103AFC000030A9259D31003A0319872D2100A6011C
:103B0C00A60A2D308F3113279D31013A031D972DB5
:103B1C000130A9259D31003A0319972D2100A701E9
:103B2C00A70A2100260B9D2D270B9D2D080026088A
:103B3C000319A22D0130892F27080319A72D003056
:103B4C00892F88310828BC00BD013C080319C22DFF
:103B5C00BE013E082F3E8F3113279D31BD072B3000
:103B6C00BE0A3E02031CAF2D2E308F3113279D3120
:103B7C003D06031901340034BF013F08023E8F316A
:103B8C0013279D31BD072B30BF0A3F02031CC32DE9
:103B9C000130BB2D22005D082000B70022005C081C
:103BAC002000B6003608C0003708C10005300927D0
:103BBC009D313B084106031DE52D3A0840060319CB
:103BCC00F62D22005D082000B70022005C082000C2
:103BDC00B6003708BD003608BC00053015279D31EE
:103BEC00220055082000B700220054082000B6001F
:103BFC003608C0003708C100073009279D313B0843
:103C0C004106031D0B2E3A08400603191B2E2200F9
:103C1C0055082000B700220054082000B6003708D1
:103C2C00BD003608BC000730152704308F31132730
:103C3C009D31C000210066082000400603192C2E7F
:103C4C00210066082000BC000430C52603308F31EB
:103C5C0013279D31C00020005708400603193B2E46
:103C6C0020005708BC000330C526C2014208093E9B
:103C7C008F3113279D31C0004208CD269D3140065F
:103C8C0003194F2E4208CD269D31BC004208093E37
:103C9C00C52642080D3E8F3113279D31C0004208C6
:103CAC00F5269D3140060319622E4208F5269D31FA
:103CBC00BC0042080D3EC5264208113E8F31132729
:103CCC009D31C0004208E1269D3140060319762E35
:103CDC004208E1269D31BC004208113EC5269D31AB
:103CEC000430C20A4202031C3C2EC3014308153E99
:103CFC008F3113279D31C0004308043ECD269D31E2
:103D0C0040060319912E4308043ECD269D31BC007C
:103D1C004308153EC5264308173E8F3113279D31A6
:103D2C00C0004308043EF5269D3140060319A62E1B
:103D3C004308043EF5269D31BC004308173EC526BA
:103D4C004308193E8F3113279D31C0004308043EB0
:103D5C00E1269D3140060319BC2E4308043EE126A2
:103D6C009D31BC004308193EC5269D310230C30A63
:103D7C004302031C7C2E78279D310130892F2000B3
:103D8C00BD003C30B600B701B70A3D081C2F20001F
:103D9C00B600043036020318D62E36083C3ED92F16
:103DAC0004303602031C003406303602031800348B
:103DBC003608523ED92F2000B600043036020318C4
:103DCC00EA2E3608403ED92F04303602031C00344C
:103DDC0006303602031800343608543ED92F200022
:103DEC00B600043036020318FE2E3608443ED92F96
:103DFC0004303602031C003406303602031800343B
:103E0C003608563ED92F2000BD00B6000230B70050
:103E1C003E3055273F08BB003E08BA000800BE00E4
:103E2C003C30B6000230B7003E081C2FBB003608F1
:103E3C00BA00230095181F2F20003B08FF3EB80046
:103E4C00FF3003180030B90038082300910020001F
:103E5C0039082300920095132000B703370F372F32
:103E6C00080023009518372F20003A088600870198
:103E7C000108230093002000BA0A2300910A0319B9
:103E8C00920AF9279D31151555309600AA309600E7
:103E9C00951415112000031C322F8B17322FB900EB
:103EAC003908B80023009518582F20003608230035
:103EBC00910092012000B703370F652F08002300F3
:103ECC009518652F95131514200038088600870166
:103EDC002300130881002000B80A2300910A03195B
:103EEC00920A602FBE01BF013F08023E8F3113279B
:103EFC009D31BE072B30BF0A3F02031C7A2F3E08B0
:103F0C00BC000130C52E2000B80038080319922FD0
:103F1C000030BA002D30952F2D30BA000030BB0088
:103F2C00BC013A083C07A8279D312000B900B60017
:103F3C003B083C07BE279D312D30BC0A3C020318C0
:103F4C000800972FB600AB2F2000640023009518B3
:103F5C00AA2F200036082300910092013F309505CE
:103F6C0015140310151803140030093D130808002C
:103F7C00B70023009518BF2F2000370823009100AD
:103F8C00920120003608230093003F309505F92755
:103F9C00151555309600AA30960095141511200071
:103FAC0003188B17080086000130870001080800F1
:103FBC00860001308700400881004008BC004108A1
:103FCC000800860001308700400881004008BC00D2
:103FDC004108080086000130870040088100400835
:103FEC00BC0041080800200003108B1B03148B132A
:043FFC002300080096
:020000040001F9
:04000E00DCEFFFFB29
:10E000000000000000000000000000000000000010
:10E010000000000000000000000000000000000000
:10E0200000000000000000000000000000000000F0
:10E0300000000000000000000000000000000000E0
:10E0400000000000000000000000000000000000D0
:10E0500000000000000000000000000000000000C0
:10E0600000000000000000000000000000000000B0
:10E0700000000000000000000000000000000000A0
:10E080000000000000000000000000000000000090
:10E090000000000000000000000000000000000080
:10E0A0000000000000000000000000000000000070
:04E0B000000000006C
:00000001FF
