:020000040000FA
:060000000000803112280F
:080008002000911A2829911D26
:1000100020292400141A0F2814197D28B52820003F
:1000200091110900283022009D00003022009E001E
:1000300020004130A00020004730A10020005230B5
:10004000A20020004130A30020002030A4002000A6
:100050005630A50020003030A60020003030A70028
:1000600020002E30A80020003030A90020003630BB
:10007000AA00F0302100990041206C209521A72191
:100080003E280030240091002E30240095000630D8
:10009000240092002400003094002400FE309300DD
:1000A0002000911124001610961296172400971024
:1000B00017101717971617162100911520000B1708
:1000C0008B1720008E0122008E0123000C308E0041
:1000D00021003F308E0008002000F7012000F601CB
:1000E0002000FE01220001302000F8002030200016
:1000F000F90021009112111208002400941E812899
:100100009B282400151A272920009111200074082B
:100110008400200073088500120024009100040868
:100120002000F40005082000F3002400951B1B218B
:100130002400151627292400151A272920009111BB
:100140002000740884002000730885001200240039
:10015000910004082000F40005082000F3002400AA
:10016000951B1B212400151627292400141C272960
:10017000941EBB28C8282000F1012000F0012000B7
:10018000F2012400110824001516200091112729DE
:100190002000F218F72820007118D128F118D12872
:1001A000E9282000701CD628F01CDE282400110845
:1001B0002000F30020000130F0000D292400110878
:1001C0002000F40020000230F00020000230F20095
:1001D0000D2924001118EF289118F3280D2920006B
:1001E0000130F1000D2911082000F1000D29200037
:1001F00074088400200073088500240011081A0088
:1002000004082000F40005082000F30020009111EC
:100210000D292000F1012000F0012400951B1B2175
:10022000151620009111272924009100240015168D
:100230002000911127292400951324001108272953
:10024000240091012000921124001516272909008D
:10025000210091119D1887291D198C29503076068F
:100260000319902920007E1B4D2923001908200026
:10027000FC0078299D0C230019082000FC007C104C
:1002800003187C147C082000FB0503194829090089
:1002900023009D1121009115090023001D08FD0078
:1002A00019082000FC002000FF002000FE1E5B2932
:1002B0007E1E702974292000FF007F0C7F06FF003E
:1002C000FF0CFF0CFF067F0EFF067D08FF067E1E5B
:1002D0006A296D297F18842978297F1C8429782927
:1002E00020007D1C8429782920007D188429782904
:1002F0002100A0307607840020007C0880002000C8
:10030000F60A2100911509002100911509001D121E
:100310001D162100911509001908210091150900E9
:10032000230019082100911509009D18A429200017
:1003300076080038031DA029200020308C04080016
:100340002000DF308C0508001D121D16080020005B
:10035000FE1F0800111E0800F7080319CE2923000C
:100360009E1C08002000780887002000790886007D
:100370002200010820007E1FC929FE1ED7297E1EEB
:10038000C52923001E100108C92923001E140108D5
:10039000C92923009A00F703F90A08000130200058
:1003A000F800220020302000F90022000800FF00A1
:1003B0007F0C7F06FF00FF0CFF0CFF067F0EFF0681
:1003C0007E1EE629E3297F1CC529C1297F18C5297E
:0203D000C12941
:0403D20000340034BF
:020000040001F9
:02000E00E40903
:02001000FF3DB2
:00000001FF
